:08000000803102288731FC2F3A
:100F380022000C11080022000C15080023001E12C4
:100F48001E159F15CF309B009C019D179E161D16E0
:100F5800080023008C018D0121000C118C10220047
:100F68000C118C1021000E178E170800723021000A
:100F780099008731AD2787318731A227873187319B
:100F88009C27873123009D1CCA2FCB2FCD2F1D12E4
:100F98001D162000911ED12FD22FC62F230019080D
:100FA800F00041307006031DDA2FDB2FC62F031027
:100FB80022008C1C03140318E22FE52F22008C1446
:100FC800E72F22008C1087319F2787312000111EC0
:100FD800EE2FEF2FEA2F423023009A009E1CF52FA8
:100FE800F62FF22F87319C278731C62F80310228B0
:080FF800F00120008731BA2F3F
:020000040001F9
:04000E00A40FFF1F1D
:00000001FF
