:04000000803116280D
:100008007E14803100308600003087002000911E69
:100018000E280F28142823001908F1000130F000D9
:100028007E10090080311828F001F1017E102000AF
:1000380080311E2880315720803170080319252807
:1000480026282128F0012B28710823009A00200077
:10005800111A2F283028282861307106031D3528E9
:100068003628392822008C14212862307106031D95
:100078003E283F28422822008C102128743071061F
:10008800031D472848282128031022008C1C03142C
:1000980003184F28522822008C14542822008C1050
:1000A8002128803116287230210099000E178E17EA
:1000B8008C1023008C101E121E159F1133309B00CC
:1000C8009D179E161D16210091160B178B170800F9
:020000040001F9
:04000E00A40FFF1F1D
:00000001FF
