:0400000080313228F1
:100008007E14803100308600003087000B1D0D28DB
:100018000E283028EB30200095000130D70700303B
:10002800D83D00305802223003195702031C1D28FE
:100038001E282028D701D80156085802031D262853
:1000480055085702031829282A282D2822008D141C
:100058002F2822008D100B117E10090080313428C2
:10006800833194238031DA00833195238031DB009A
:10007800833196238031DC00833197238031DD0082
:100088004B308400003085000F3083318E2380315F
:100098007E102000803150282000C601C701C00111
:1000A800C1010130BF008331602380318331742363
:1000B800803183314C238031003083318523803176
:1000C8002000C20001308331852380312000C30025
:1000D800420A031D702871287428C901CA017F28A3
:1000E8004208B900BA01B935BA0DB935BA0D39089F
:1000F800C9003A08CA00430A031D832884288728B0
:10010800C401C50192284308B900BA01B935BA0D2E
:10011800B935BA0D3908C4003A08C50020000D0EDB
:100128000139C8005D03031D9A289B28AD2848089B
:10013800031D9F28A028AD28D101D201D9014A0862
:10014800C7004908C6004A08C1004908C000013074
:10015800BF004808031DB128B228062903305202FF
:10016800E830031951020318BA28BB28BF28013008
:10017800D1070030D23D003052023330031951020A
:10018800031CC728C828CA280130D90059080319F0
:10019800CE28CF2806293F08803A7F3E031CD52861
:1001A800D628EB2803304702FB3003194602031810
:1001B800DE28DF28E4280230C6070030C73D0629BC
:1001C800FF30C6000330C700FF30BF0006294008D3
:1001D800043EB9000030413DBA0047083A02031D09
:1001E800F728460839020318FA28FB2800290230A4
:1001F800C6020030C73B06294108C7004008C600B0
:100208000130BF005D08031D0A290B29482948034E
:10021800031D0F29102948295908031D14291529D8
:1002280044295A0883311C23803171082000CA00F0
:100238007008C9005B0883311C23803171082000D5
:10024800C5007008C4004A08BA004908B900BA369F
:10025800B90CBA36B90C3908F000003083313623AE
:10026800803120004508BA004408B900BA36B90CF4
:10027800BA36B90C3908F0000130833136238031A1
:100288002000D101D201D9014808DD005A08833184
:100298001C23803171082000BC007008BB005B087B
:1002A80083311C23803171082000BE007008BD0016
:1002B8003C08AE003B08AD004A08B0004908AF0052
:1002C80081319B21803120002E08CC002D08CB00E5
:1002D8003E08AE003D08AD004508B0004408AF0038
:1002E80081319B21803120002E08CE002D08CD00C1
:1002F800590803198029812989294708FD004608DA
:10030800FC008131FB21803190294C08FD004B080D
:10031800FC008131FB21803120004E08FD004D0892
:10032800FC008231B022803192288031322800309E
:1003380020002E02033003192D020318A429A52931
:10034800A829AD01AE01FA2903303002FF300319A4
:100358002F02031CB029B129B629FF30AD000330A4
:10036800AE00FA290030A3000030A2000330A1003B
:10037800FD30A0002D08FE3EF000FF302E3DF100BC
:10038800F201F3012F08B1003008B200B301B40143
:10039800FF30B5000330B6000030B7000030B800B9
:1003A8003108B5023208B63B3308B73B3408B83BCE
:1003B8003808F7003708F6003608F5003508F40065
:1003C8008231E922813173082000A7007208A60053
:1003D8007108A5007008A4008231572281312000DD
:1003E8002F082007AD003008213DAE00080000307E
:1003F8007D02043003197C020318032A042A062A02
:10040800FC01FD0103307D02F83003197C02031C56
:100418000E2A0F2A132AFF30FC000330FD0000309B
:100428002000A3000030A2000330A100FF30A0008C
:100438007C08F0007D08F100F201F3010030F700BC
:100448000030F6000130F500F330F4008231E92283
:10045800813173082000A7007208A6007108A50062
:100468007008A40082315722813120002108D4006D
:100478002008D3005408AE005308AD00AE36AD0CCA
:10048800AE36AD0C2D082500910020005308033925
:10049800AD00AD0E2500130820002D06CF392D061E
:1004A80025009300080000302000AB000030AA00AF
:1004B8000030A9000030A8002308220421042004E9
:1004C8000319672A682AA72A0130AC00742A013068
:1004D800A035A10DA20DA30D890B6C2A0130AC0724
:1004E800A31F772A782A6B2A0130A835A90DAA0DEF
:1004F800AB0D890B792A23082702031D8D2A2208B0
:100508002602031D8D2A21082502031D8D2A200895
:100518002402031C902A912A9A2A2008A40221085E
:10052800A53B2208A63B2308A73B28140130A33685
:10053800A20CA10CA00C890B9B2A0130AC02031D54
:10054800A62AA72A782A2B08A3002A08A200290885
:10055800A1002808A000080004307D02003003191B
:100568007C02031CB82AB92ABD2AFF30FC000330DC
:10057800FD0000302000A3000030A2000330A100DD
:10058800FF30A0007C08F0007D08F100F201F301C3
:100598000030F7000030F6000030F5002230F4009B
:1005A8008231E922823173082000A7007208A60070
:1005B8007108A5007008A4008231572282312000FA
:1005C8002108D6002008D50008000030FB000030C4
:1005D800FA000030F9000030F800701CF42AF52AFF
:1005E800FD2A7408F8077508F93D7608FA3D77087A
:1005F800FB3D0130F435F50DF60DF70D890BFE2A9C
:100608000130F336F20CF10CF00C890B052B730852
:10061800720471047004031D122B132BF12A7B083A
:10062800F3007A08F2007908F1007808F000080071
:10063800F3007308F200F20DF20D21001D08720696
:10064800833972069D000630890B282B0032210061
:100658009D149D18302B312B2D2B1C08F1001B08E5
:10066800F0000800F1007108230091007008930061
:100678009513151315158B1355309600AA3096004F
:1006880095148B179518492B4A2B462B15110800E2
:1006980021008D1022008D1021000D1623000D124F
:1006A800210095129511F8309505EB302000950042
:1006B8000B118B168B170800723021009900FF3040
:1006C8008E000E1123008D0120001C08FC39023811
:1006D8009C001C157C309B000C3025009300080002
:1006E80021008C140C1523008C140C1521001D14EA
:1006F8001E11FC309E051E088F3950389E009E172B
:100708000800F000700823009100951315131514C4
:1007180013080800640080010131890B8F2B003415
:080728000134023403340134F2
:020000040001F9
:02000E00E40FFD
:00000001FF
