:0400000080313328F0
:100008007E148031003086000030870023009D1C5C
:100018000E280F2811281D121D162000911E1528C4
:100028001628312823001D1D1A281B281D281908E9
:1000380031287108013E0F39F20072087006031961
:100048002628272830287108203E860087011908AD
:1000580081007208F100312819087E1009008031EA
:100068003528F001F101203084000030850010307F
:1000780080319A2080317E102000803143288031E1
:10008800852080317108700603194B284C284628B2
:100098007008203E860087010108F3007008013EC1
:1000A8000F39F0002000111E5A285B2856287308C3
:1000B80023009A0061307306031D632864286728AB
:1000C80022008C14462862307306031D6C286D28A4
:1000D800702822008C10462874307306031D75287A
:1000E80076284628031022008C1C031403187D2848
:1000F800802822008C14822822008C104628803107
:1001080033287230210099000E178E178C102300A7
:100118008C101E121E159F1133309B009D179E16C2
:100128001D16210091160B178B170800640080011B
:080138000131890B9B28003402
:020000040001F9
:04000E00A40FFF1F1D
:00000001FF
