:08000000803102288731FD2F39
:100F64007230210099000E178E178C1023008C10FC
:100F74001E121E159F1133309B009D179E161D16C1
:100F840008008731B22787312000911ECA2FCB2F4A
:100F9400C62F23001908F0002000111ED22FD32FD2
:100FA400CE2F700823009A0061307006031DDB2FDA
:100FB400DC2FDF2F22008C14C62F62307006031D35
:100FC400E42FE52FE82F22008C10C62F7430700612
:100FD400031DED2FEE2FC62F031022008C1C0314CB
:100FE4000318F52FF82F22008C14FA2F22008C10EE
:0C0FF400C62F8031022820008731C32F57
:020000040001F9
:04000E00A40FFF1F1D
:00000001FF
