:0400000080312C28F7
:100008007E14803100308600003087002000911E69
:100018000E280F282A2823009D1C13281428162888
:100028001D121D167108013E0F39F2007208700684
:1000380003191F28202829287108203E86008701D7
:10004800190881007208F1002A2819087E10090091
:1000580080312E28F001F101203084000030850025
:1000680010308031932080317E10200080313C2870
:1000780080317E2080317108700603194428452894
:100088003F287008203E860087010108F3007008A9
:10009800013E0F39F0002000111E532854284F2824
:1000A800730823009A0061307306031D5C285D28DD
:1000B800602822008C143F2862307306031D6528CF
:1000C8006628692822008C103F2874307306031DA7
:1000D8006E286F283F28031022008C1C0314031875
:1000E8007628792822008C147B2822008C103F283F
:1000F80080312C287230210099000E178E178C1031
:1001080023008C101E121E159F1133309B009D1763
:100118009E161D16210091160B178B1708006400F8
:0A01280080010131890B9428003496
:020000040001F9
:04000E00A40FFF1F1D
:00000001FF
