:08000000803102288731E52F51
:100E8C00FE0012001E00FE0B472F003457346F3447
:100E9C0072346C3464340034483465346C346C34DF
:100EAC006F34003421008C018E100E1123008C0144
:100EBC000800F60022008E1476088C000E15003205
:100ECC0022000E112130890B692F00000800F6005A
:100EDC0022008E1076088C000E15003222000E11A6
:100EEC002130890B772F000008008230F700DE30AC
:100EFC00890B7E2FF70B7E2F383087316D2787318A
:100F0C001A30890B872F0032383087316D278731A3
:100F1C001A30890B8F2F00320C3087316D278731B7
:100F2C001A30890B972F0032013087316D278731AA
:100F3C003430F700F230890BA12FF70BA12F0630BC
:100F4C0087316D27873108008731582787318731E2
:100F5C007B278731803087316D278731F801C02F8F
:100F6C007808703E86008701010887315F2787313A
:100F7C000130F8077808703E860087010108031DD0
:100F8C00C82FC92FB62FC03087316D278731F90193
:100F9C00D92F7908203E86008701010887315F2709
:100FAC0087310130F9077908203E86008701010856
:100FBC00031DE12FE22FCF2FE22F80310228523078
:100FCC008400873085007030860000308700063042
:100FDC008731462787314C3084008730850020309C
:100FEC008600003087000630873146278731200085
:040FFC008731AA2F60
:020000040001F9
:04000E00A40FFF1F1D
:00000001FF
