:0400000080310C2817
:100008007E14803100308600003087007E100900A1
:1000180080310E287E102000803112287230210095
:1000280099008031382080318031452080318031FD
:10003800502080312000111E222823281E284130FC
:1000480023009A009E1C29282A2826280B30F10014
:100058002630F0005E30890B2F28F00B2F28F10B8B
:100068002F281E2880310C2823008C018D012100A7
:100078000C118C1022000C118C1021000E178E17F9
:10008800080023001E121E159F15CF309B009C01EF
:0E0098009D179E161D16080022000C1508006C
:020000040001F9
:04000E00A40FFF1F1D
:00000001FF
