:0400000080310C2817
:100008007E14803100308600003087007E100900A1
:1000180080310E287E102000803112287230210095
:10002800990080313B2080318031482080318031F7
:10003800532080312000911E222823281E282300C7
:100048001908F00041307006031D2B282C281E28A3
:10005800031022008C1C03140318332836282200AE
:100068008C14382822008C101E2880310C2823007C
:100078008C018D0121000C118C1022000C118C10A8
:1000880021000E178E17080023001E121E159F153B
:10009800CF309B009C019D179E161D16080022005C
:0400A8000C1108002F
:020000040001F9
:04000E00A40FFF1F1D
:00000001FF
