:08000000803102288731ED2F49
:100DC400483465346C346C346F34003424001614A5
:100DD4001618ED2EEE2EEA2E08002400161516190C
:100DE400F42EF52EF12E0800F6002000911176085D
:100DF400240091002000911D002F012FFC2E0800DB
:100E040021008E150E162400941714131508F039BA
:100E1400083895001330920095160800F7008631C3
:100E2400E82687317C308631F626873100308631DA
:100E3400F626873177088631F62687318631EF2604
:100E440087310800F7008631E82687317C30863107
:100E5400F626873140308631F62687317708863189
:100E6400F62687318631EF2687310800723021005B
:100E74009900873102278731873171278731FA0139
:100E84004D2F7A08703E8600870101088731242798
:100E940087310130FA077A08703E8600870101081D
:100EA400031D552F562F432FC0308731102787310C
:100EB40057308731242787316F3087312427873192
:100EC40072308731242787316C308731242787316A
:100ED40064308731242787316E2F80310228023015
:100EE400F9000430F800BA30890B762FF80B762F0E
:100EF400F90B762F003238308731102787314E3086
:100F0400F800EB30890B842FF80B842F0000393064
:100F14008731102787314E30F800EB30890B902F42
:100F2400F80B902F000014308731102787314E3092
:100F3400F800EB30890B9C2FF80B9C2F00007330CA
:100F44008731102787314E30F800EB30890BA82FFA
:100F5400F80BA82F00005C308731102787314E3002
:100F6400F800EB30890BB42FF80BB42F00006C3071
:100F74008731102787310330F9008A30F800563062
:100F8400890BC22FF80BC22FF90BC22F38308731CF
:100F9400102787314E30F800EB30890BCF2FF80B38
:100FA400CF2F000001308731102787314E30F800F1
:100FB400EB30890BDB2FF80BDB2F00000C30873173
:100FC400102787314E30F800EB30890BE72FF80BF0
:100FD400E72F00000800E23084008630850012000C
:100FE400F0001200F1001200F2001200F3001200EF
:0C0FF400F4001200F50020008731382FB7
:020000040001F9
:04000E00A40FFF1F1D
:00000001FF
