:08000000803102288731E92F4D
:100EA600FE0012001E00FE0B542F003401340034E5
:100EB6000C340034193400342734003423001E1255
:100EC6001E159F1507309B009C019D171D160800D7
:100ED60023008C018D0121000C118C1022000C11B5
:100EE60021000E178E1708007230210099008731F5
:100EF6006B27873187316127873123009D1C842F1B
:100F0600852F872F1D121D1687318D278731802F3C
:100F1600803102282000911A912F922F932FE82FCB
:100F260023001D1D972F982F9D2F1908F700F401F8
:100F3600F501E82F1908FA0074087504031DA42F9B
:100F4600A52FA82F7A08F600E42F74037504031D55
:100F5600AD2FAE2FBA2F80307A02031CB32FB42FD9
:100F6600B72F22008C14E42F22008C10E42F0230BD
:100F760075020130031974020318C22FC32FE42F20
:100F8600FB017B35203E86008701403FF800413F4C
:100F9600F90075087906031DD22F74087806031D1B
:100FA600D52FD62FDC2F7B08703E860087017A0866
:100FB60081000130FB0704307B02031CE32FE42F82
:100FC600C42F0130F4070030F53D08005930840085
:100FD6008730850020308600003087000830873152
:100FE60053278731F001F101F201F301F401F50114
:0A0FF600F601F70120008731772F84
:020000040001F9
:04000E00A40FFF1F1D
:00000001FF
