:0400000080312728FC
:100008007E14803100308600003087000B1D0D28DB
:100018000E2825280530200095000B1121006403C7
:10002800031D1728182825282730630210300319C4
:10003800620203182028212825280130E207003011
:10004800E33D7E100900803129287B30840084300C
:1000580085005F308600003087000A3084318E24A6
:100068008031210084319A248031E60020308400D8
:10007800003085002030843194248031E201E3018E
:10008800E401E5017E10200080314A2823000D128A
:1000980021000D16D2308600003087000A3020007B
:1000A800D90000301E00D90B5628B4308600003025
:1000B80087000A30D90000301E00D90B60285F3055
:1000C800860000308700C33084000030850005308A
:1000D800D90016001A00D90B6D28AA308600003006
:1000E80087000A30D90000301E00D90B78288331E8
:1000F800BE2380318431702480312100DF015F0804
:10010800BE3E860087015F088431852480318100E6
:1001180021005F08BE3E86008701010A031D95285D
:1001280096289E285F35C83E860087010030C03F6C
:10013800C13FB4285F08BE3E860087010108200041
:10014800D900DA01D935DA0DD935DA0D21005F3554
:10015800C83E8600870120005908C03F5A08C13FA1
:1001680001302100DF0705305F02031CBC28BD28D1
:10017800832820000D0E01392100DC006603031DD1
:10018800C628C728F8285C08031DCB28CC28F828DF
:10019800E201E301E5010130E400DE015E35C83E1D
:1001A800860087015E35D23E84008501403F803F4E
:1001B800413F813F5E35C83E860087015E35B43ECB
:1001C80084008501403F803F413F813F5E08C33E38
:1001D80086008701013081000130DE0705305E02AC
:1001E800031CF728F828D2285C08031DFC28FD28E2
:1001F800902909306302C53003196202031C0529DE
:10020800062908290130E500E101650803190D29CF
:100218000E2988296108C33E860087010108803AB3
:100228007F3E031C1829192946296135D23E8600CC
:100238008701403F2000D900413FDA0003305A02CD
:10024800FB300319590203182A292B2936292100C2
:100258006135D23E8600870101308107413103189C
:10026800810A882921006135D23E86008701FF3046
:10027800C03F0330C13F6108C33E86008701FF309D
:10028800810088296135D23E86008701403F2000E1
:10029800D900413FDA0021006135B43E860087016C
:1002A800403F2000DB00413FDC005B08043EDD00EE
:1002B80000305C3DDE005A085E02031D65295908BE
:1002C8005D02031868296929752921006135D23E24
:1002D800860087010130810241310030813B7F3146
:1002E800882921006135B43E860087016135D23EF8
:1002F80084008501403F803F413F813F6108C33E04
:1003080086008701013081000130E1070530610274
:10031800031C8F29902909296608031D942995290A
:10032800D2295C03031D99299A29D229E401650879
:10033800031D9F29A029CF29DD015D08643E8600A1
:100348008701010884314024803121005D35C83E91
:10035800860087017008C03F7108C13F5D35C83EFF
:1003680086008701403F2000D900413FDA00DA3695
:10037800D90CDA36D90C5908F00021005D0884310F
:100388005A24803101302100DD0705305D02031C4D
:10039800CE29CF29A129E201E301E5015C08E600A5
:1003A800E0016008643E860087010108843140242A
:1003B800803121006035A03E860087017008C03F6B
:1003C8007108C13F6035A03E86008701403F20008C
:1003D800CD00413FCE0021006035C83E8600870130
:1003E800403F2000CF00413FD000833105238031BA
:1003F80021006035AA3E8600870120004D08C03FD5
:100408004E08C13F2100650803190B2A0C2A192A36
:100418006035D23E86008701403FFC00413FFD0029
:100428006008823131228031252A6035AA3E860053
:100438008701403FFC00413FFD00600882313122C6
:10044800803101302100E00705306002031C2D2AAD
:100458002E2AD529BD28803127282000CF0000303A
:100468007D02043003197C0203183B2A3C2A3E2AE9
:10047800FC01FD0104307D02003003197C02031CDD
:10048800462A472A4B2AFF30FC000330FD00003083
:10049800C3000030C2000330C100FF30C0007C0838
:1004A800F0007D08F100F201F3010030F7000030A0
:1004B800F6000130F500F330F40084310D24823168
:1004C80073082000C7007208C6007108C5007008CC
:1004D800C40083316523823120004108D1004008DF
:1004E800D000F32A5108CE005008CD00CE36CD0CEE
:1004F800CE36CD0C4D082500910020005008033958
:10050800CD00CD0E2500130820004D06CF394D062D
:1005180025009300042B5108CE005008CD00CE369C
:10052800CD0CCE36CD0C4D08250098002000500883
:100538000339CD00CD0E25001A0820004D06CF390D
:100548004D0625009A00042B5108CE005008CD0016
:10055800CE36CD0CCE36CD0C4D08260091002000AD
:1005680050080339CD00CD0E2600130820004D0693
:10057800CF394D0626009300042B5108CE005008B1
:10058800CD00CE36CD0CCE36CD0C4D0826009800C9
:10059800200050080339CD00CD0E26001A0820008F
:1005A8004D06CF394D0626009A00042B5108CE007F
:1005B8005008CD00CE36CD0CCE36CD0C4D082600D9
:1005C8009C00200050080339CD00CD0E26001E08DF
:1005D80020004D06CF394D0626009E00042B4F08FB
:1005E800003A0319762A013A03198F2A033A0319A4
:1005F800A82A013A0319C12A073A0319DA2A042B4F
:100608000800003020004E02033003194D02031881
:100618000E2B0F2B122BCD01CE01642B04304E0272
:10062800003003194D02031C1A2B1B2B202BFF3003
:10063800CD000330CE00642B0030C3000030C20070
:100648000330C100FD30C0004D08FE3EF000FF3011
:100658004E3DF100F201F3014F08D1005008D200DD
:10066800D301D401FF30D5000330D6000030D700C5
:100678000030D8005108D5025208D63B5308D73B62
:100688005408D83B5808F7005708F6005608F500F4
:100698005508F40084310D24833173082000C70005
:1006A8007208C6007108C5007008C400833165234C
:1006B800833120004F084007CD005008413DCE004F
:1006C800080000302000CB000030CA000030C9000C
:1006D8000030C80043084204410440040319752B44
:1006E800762BB52B0130CC00822B0130C035C10DE3
:1006F800C20DC30D890B7A2B0130CC07C31F852B84
:10070800862B792B0130C835C90DCA0DCB0D890B45
:10071800872B43084702031D9B2B42084602031DF3
:100728009B2B41084502031D9B2B40084402031CD8
:100738009E2B9F2BA82B4008C4024108C53B4208AA
:10074800C63B4308C73B48140130C336C20CC10C32
:10075800C00C890BA92B0130CC02031DB42BB52B7F
:10076800862B4B08C3004A08C2004908C100480844
:10077800C00008007430210099000E118E108D12EF
:100788000D1022001D101D1720001C08FC3902380E
:100798009C0028001708FC39023897001E08FC390D
:1007A80002389E00FC3025009E05F3309E051E0889
:1007B800CF3910389E001E083F3940389E001F0868
:1007C800FC3902389F0020001C15280017151E153B
:1007D8007C3020009B007C30280096007C309D00F7
:1007E8000C30250093000C309A000C302600930042
:1007F8000C309A000C309E002100951295111511AD
:10080800951415100530200095000B118B168B17C9
:1008180008000030FB000030FA000030F90000301A
:10082800F800701C182C192C212C7408F80775086E
:10083800F93D7608FA3D7708FB3D0130F435F50DB2
:10084800F60DF70D890B222C0130F336F20CF10C62
:10085800F00C890B292C7308720471047004031DB1
:10086800362C372C152C7B08F3007A08F20079080F
:10087800F1007808F0000800F3007308F200F20DA8
:10088800F20D21001D087206833972069D0006309C
:10089800890B4C2C003221009D149D18542C552C8A
:1008A800512C1C08F1001B08F0000800F100710829
:1008B80023009100700893001513951315158B13D9
:1008C80055309600AA309600951495186C2C6D2C0E
:1008D800692C15118B1708002F3021008C002F3040
:1008E80023008C0021001D14D0309E000800013424
:1008F8000134013401340134003401340234033446
:100908000434F00070082300910015139513151492
:1009180013080800FE0012001E00FE0B8F2C003486
:0E092800640080010131890B952C00340134EC
:020000040001F9
:04000E00A40FFF1F1D
:00000001FF
