:08000000803102288731E72F4F
:100CE000FF34003423001E121E159F1507309B0091
:100CF0009C019D179E160800F0002000111E812EF9
:100D0000822E7D2E700823009A000800FE0012003B
:100D10001E000130FE020030FF3B7F087E04031DF1
:100D2000872E003423008C018D0121000C118C10C2
:100D300022000C158C1021000E178E1708002300BE
:100D40009E1221000E1322000E134230890BA62E94
:100D5000003222000E170830890BAC2E23009E169D
:100D600000320800723021009900863192268631C7
:100D70008631722686318631C82686310330F200EC
:100D80009830890BC12EF20BC12EBB2E8031022868
:100D900086319F268631003086317C268631F101EE
:100DA000DD2E7108F13E860087012230873D010863
:100DB00086317C2686310130F107710A031DE12E50
:100DC000E22ED12E23009E1CE62EE72EE22E0800F6
:100DD000FF347D340034FF340034003400341E34DA
:100DE0000034003400340034003400340034003463
:100DF0000034003400340034003400340034003453
:100E00000034003400340034003400340034003442
:100E10000034003400340034003400340034003432
:100E20000034003400340034003400340034003422
:100E30000034003400340034003400340034003412
:100E40000034003400340034003400340034003402
:100E500000340034003400340034003400340034F2
:100E600000340034003400340034003400340034E2
:100E700000340034003400340034003400340034D2
:100E800000340034003400340034003400340034C2
:100E900000340034003400340034003400340034B2
:100EA00000340034003400340034003400340034A2
:100EB0000034003400340034003400340034003492
:100EC0000034003400340034003400340034003482
:100ED0000034003400340034003400340034003472
:100EE0000034003400340034003400340034003462
:100EF0000034003400340034003400340034003452
:100F00000034003400340034003400340034003441
:100F10000034003400340034003400340034003431
:100F20000034003400340034003400340034003421
:100F30000034003400340034003400340034003411
:100F40000034003400340034003400340034003401
:100F500000340034003400340034003400340034F1
:100F600000340034003400340034003400340034E1
:100F700000340034003400340034003400340034D1
:100F800000340034003400340034003400340034C1
:100F900000340034003400340034003400340034B1
:100FA00000340034003400340034003400340034A1
:100FB0000034003400340034003400340034003491
:100FC0000034003400340034003400340034E8309D
:100FD000840086308500F1308600223087000030A2
:100FE000FF00FF30863186268731863170268731B3
:100FF000F300863171268731F40020008631B22E4D
:020000040001F9
:04000E00A40FFF1F1D
:00000001FF
