:08000000803102288731F12F45
:100EEE00FE0012001E00FE0B782F003448346534CD
:100EFE006C346C346F34213421340D340A340034A4
:100F0E007230210099000E178E178C1023008C1052
:100F1E001E121E159F1133309B009D179E16080042
:100F2E007008F2009C2F0130F007700886008701D0
:100F3E000108031DA32FA42F9A2F72087002F00030
:100F4E00F101F01BF103080087318727873122005A
:100F5E008C142D3086000030870020308400003045
:100F6E0085000A30F30016001A00F30BBA2F20305A
:100F7E00F00087319727873171082000AB00700889
:100F8E00AA00AC01D82F111ECD2FCE2FCA2F2C08A0
:100F9E00203E86008701010823009A0001302000C0
:100FAE00AC072C08F3002B08031DDF2F2A08730251
:100FBE00031CE22FE32FCA2F0630F4001330F30088
:100FCE00AE30890BE82FF30BE82FF40BE82FAE2F82
:100FDE00803102287D308400873085002D308600D8
:100FEE00003087000A30873177278731200087311C
:020FFE00AB2F17
:020000040001F9
:04000E00A40FFF1F1D
:00000001FF
