:08000000803102288731E52F51
:100E3800FE0012001E00FE0B1D2F003457346F34C5
:100E480072346C3464340034483465346C346C3433
:100E58006F34003421008C018E100E1123008C0198
:100E68000800F30022008E147308F2000430F236F2
:100E7800890B3B2F720887315B27873173080F393D
:100E880087315B2787310800F30022008E10730832
:100E9800F2000430F236890B4E2F720887315B2737
:100EA800873173080F3987315B2787310800F100D4
:100EB8000F3022008C057108F0000430F035890BE2
:100EC800622F70088C040E15003222000E1121309A
:100ED800890B6C2F000008008230F400DE30890B8B
:100EE800732FF40B732F22008E10033087315B278A
:100EF80087311A30890B7E2F0032023087315B2709
:100F080087311A30890B862F0032283087314827DD
:100F180087311A30890B8E2F00320F3087314827DE
:100F280087311A30890B962F0032013087314827D4
:100F380087310630F4003030890BA02FF40BA02F36
:100F480000320630873148278731080087312E273D
:100F5800873187317027873180308731482787313B
:100F6800F501C02F7508773E860087010108873193
:100F7800352787310130F5077508773E86008701E8
:100F88000108031DC82FC92FB62FC0308731482745
:100F98008731F601D92F7608203E8600870101089F
:100FA8008731352787310130F6077608203E8600DD
:100FB80087010108031DE12FE22FCF2FE22F803197
:100FC800022828308400873085007730860000307A
:100FD8008700063087311C2787312230840087300C
:100FE80085002030860000308700063087311C27B6
:080FF800873120008731AA2F88
:020000040001F9
:04000E00A40FFF1F1D
:00000001FF
