:08000000803102288731E52F51
:100DC200FE0012001E00FE0BE22E003457346F3478
:100DD20072346C3464340034483465346C346C34AA
:100DE2006F34003421008C018E100E118E112300FD
:100DF2008C010800873156278631003A031D022FE5
:100E0200032FFB2E0800F1000F3022008C05710821
:100E1200F0000430F035890B0B2F70088C040E158E
:100E2200003222000E110800F30022008E10730817
:100E3200F2000430F236890B1B2F72088731042727
:100E4200873173080F398731042787310800F3008F
:100E520022008E108E117308F2000430F236890BD4
:100E62002F2F720887310427873173080F39873192
:100E7200042787318631FB2687310800F3002200E0
:100E82008E148E117308F2000430F236890B462F4D
:100E9200720887310427873173080F398731042795
:100EA20087318631FB2687310800F03021008C041F
:100EB20022008E108E150E15003220000C0D0C0D26
:100EC2000139F00022000E110E15003222000E111F
:100ED2008E110F3021008C05700808008230F4005A
:100EE200DE30890B722FF40B722F22008E108E11BE
:100EF20003308731042787311A30890B7E2F003265
:100F020002308731042787311A30890B862F00324D
:100F120028308731152787311A30890B8E2F0032FE
:100F22000F308731152787311A30890B962F0032FF
:100F320001308731152787310630F4003030890BB4
:100F4200A02FF40BA02F00320630873115278731EE
:100F520008008631F326873187316F278731803049
:100F6200873128278731F501C02F7508773E860023
:100F72008701010887313F2787310130F50775085E
:100F8200773E860087010108031DC82FC92FB62F9F
:100F9200C030873128278731F601D92F7608203EC5
:100FA20086008701010887313F2787310130F60724
:100FB2007608203E860087010108031DE12FE22FFB
:100FC200CF2FE22F80310228ED3084008630850059
:100FD200773086000030870006308631E12687317F
:100FE200E73084008630850020308600003087009C
:0E0FF20006308631E126873120008731AA2F94
:020000040001F9
:04000E00A40FFF1F1D
:00000001FF
